:1078000011E0A0E0B1E0EAEEFFE702C005900D92C2
:10781000A630B107D9F721E0A6E0B1E001C01D9282
:10782000AE34B207E1F7CDB7DEB76197DEBFCDBFAB
:10783000112484B78093270114BE88E180936000EF
:1078400089E280936000259A86E020E295B1922734
:1078500095B9E3EDF0E33197F1F700C000008150F6
:10786000A9F78091270181FD13C08EE284B980E5DC
:107870008CBD81E08DBD812C912C5524539411E059
:10788000CC24CA94DC2CAA24A39472E0B72EFDC0A9
:1078900082E08093C00088E18093C10086E08093FD
:1078A000C2008CE08093C400E12CF12CC12CD12CBF
:1078B000AA24AA94BA2C01E0A89507D3813471F4C4
:1078C00004D3898B0ED38989823811F482E053C0A6
:1078D000813811F485E64FC083E04DC0823411F445
:1078E00084E103C0853419F485E007D363C085358E
:1078F00041F4EBD2E82EE9D2F12CF82AEE0CFF1C71
:1079000058C0863521F484E0F8D280E034C0843653
:10791000E1F4DBD2DAD2882ED8D2C80CD11C912C5B
:10792000981480F4D2D2182FD0D2F701E90DF11DAE
:10793000212F30E0382B090107BFE89511249394DB
:107940009394EECFC7018CD134C0843761F4BDD29B
:10795000BCD2182FBAD2C5D2F70185917F01AED221
:107960001150D1F728C0853741F4BBD28EE1A6D2A1
:1079700085E9A4D28FE0A2D21DC08135D1F4BA82AC
:10798000A982BC82AB82C60134E0969587953A9570
:10799000E1F79E838D83C60175D198878F8348E078
:1079A00050E06BE171E0CE010196FED29AD211E077
:1079B00002C097D210E080E181D2112309F47CCF7C
:1079C00054CF43E050E060E070E089E291E0DCD227
:1079D00048E050E06BE171E0CE010196D5D22998E4
:1079E0002A9A63E083E29AD16CE485E297D167E258
:1079F00086E294D163E780E591D164E08DE38ED196
:107A000061E082E28BD161E081E288D161E08CE3C8
:107A100085D121E041E060E070E086E058D1873216
:107A200009F008C180912A018093280110924D012C
:107A30008FEF80932A0180932B0103E22AE047E035
:107A40006FEF62D260E084E269D160E08EEF83D1B3
:107A500080912A018F3F09F4EDC080912901815066
:107A60008E3F08F46CC003E222E043E06FEF80E059
:107A70004BD263E084E06FD1882379F383E391E014
:107A800051D2682F80E090E09ED2F999FECF99CF35
:107A900046E050E063E371E08DE091E060D2892B35
:107AA00079F5C3018150904F082F0295007740E08F
:107AB00050E0602F70E0DA01A45DBE4FFA01E60FDE
:107AC000F71F1E962C911E9730E0322F22271D960D
:107AD000AC912A2B090157BEE89511244E5F5F4FE8
:107AE0004031510541F7011106C044E0880F991F4C
:107AF0004A95E1F7B5D0E114F10409F482C03701E9
:107B000089859A8590930E0180930D018B859C85C4
:107B10009093100180930F01730121E0E21AF108A4
:107B2000F0921201E092110104EC22E342E06FEFC7
:107B300080E0EAD168E083E00ED18111A9CF6FE542
:107B400084E2ECD010930D0110920E0103EC22E1BF
:107B50004FE06FEF80E0D8D160E08FE0FCD08D8106
:107B60009E8124E0880F991F2A95E1F78BD0988792
:107B70008F8388E0FE013196ADE0B1E001900D9277
:107B80008A95E1F7B0921601A092150104EC22E566
:107B900040E06FEF80E0B8D163E081E0DCD0882383
:107BA00009F448C088E0E3E3F1E0DE0119960190B2
:107BB0000D928A95E1F748E050E0BE01675F7F4F84
:107BC000CE010196CCD1892BA9F1809137019091FA
:107BD00038018038974070F588E0FE013996DE0163
:107BE000119601900D928A95E1F7D886CF8248E0F0
:107BF00050E06BE171E0CE010196D6D16D847E84B8
:107C00007FCF8D859E8534E0880F991F3A95E1F7E7
:107C100039D02F8538898217930721F01E861D865B
:107C2000188A1F8648E050E06BE171E0CE010996AA
:107C3000BBD12BCF8D819E8124E0880F991F2A957F
:107C4000E1F720D02F8138858217930709F01DCFE7
:107C50001CBCA89580912701282EF401099515CF09
:107C600023E0FC0127BFE89507B600FCFDCF25E027
:107C7000FC0127BFE89507B600FCFDCF81E187BF77
:107C8000E8950895AC01413088E7580710F040E0CE
:107C900058E7E0E0F0E08FEF9FEF41155105B1F0BC
:107CA0002591822768E0DC01B695A7959C0121709B
:107CB00033273195219531092170307AC9018A27FE
:107CC0009B27615081F741505109E7CF08952A98C9
:107CD0008EBD0DB407FEFDCF8EB59FEF4150D0F0A5
:107CE000222369F09EBD0DB407FEFDCF8EB5611550
:107CF0007105A1F3DB018C936F5F7F4FEFCFFB0129
:107D00003196DB018C918EBD0DB407FEFDCF8EB593
:107D1000BF01E4CF2A9A089520E0D9CFCF93DF9313
:107D20001F92CDB7DEB7698320E041E0BE016F5FEF
:107D30007F4FCDDF0F90DF91CF91089540E060E05D
:107D400070E082EEE9DF40E060E070E081EEE4DFC9
:107D500060E787E2E3CFEF92FF920F931F93CF93F9
:107D6000DF93F82ED62FEE24EA94A895C09109014E
:107D7000C695C695C695C95F10912A0129986EE0EF
:107D800080E2CCDFDBDF1093000145E060E071E0D2
:107D90008AE2C2DF45E060E071E080E3BDDF4C2FA6
:107DA00066E071E080EAB8DF299A2A98EEBC0DB44B
:107DB00007FEFDCFCEB52A9A8C2F8073B1F3299898
:107DC00060E387E2ABDFC4FF05C040E060E070E045
:107DD00081EEA2DF6FE080E2A1DF609129018AE2FB
:107DE0009DDFACDF299A00E010E4A89521E041E096
:107DF00060E070E087E16BDF80FF02C04FEF44C0BE
:107E000021E041E060E070E080E661DF813230F047
:107E100040E060E070E082EE7FDF80E021E0482F0C
:107E20006CE271E081E653DF89DF90912E01809151
:107E300029019813E3CF409131018091300187707F
:107E4000833011F5483001F580912D0150912801C2
:107E5000851303C091E090934D0190913301692FF8
:107E600070E020912B0130E0215031096217730737
:107E700024F420914D01222311F0851305C09F5F4A
:107E800090932B0180932A0191E04F1190E00150D3
:107E9000110921F4892FD11105C009C0992309F4D2
:107EA000A4CF04C0D150992309F45FCF81E0DF91C2
:107EB000CF911F910F91FF90EF9008959091C00086
:107EC00095FFFCCF8093C60008958091C00087FF86
:107ED000FCCF8091C00084FD01C0A8958091C600B0
:107EE0000895F3DF803239F088E18093600088E004
:107EF00080936000FFCF84E1E1CFCF93C82FE5DF0F
:107F0000C150E9F7CF91EDCF0F9390912901E6E0B1
:107F1000F1E0918390838283668345830483238386
:107F20000F910895FC0188279927E8942191203228
:107F3000E9F3293010F02E30C8F32B3239F02D320E
:107F400031F4689403C018D0820F911D2191205301
:107F50002A30C8F31EF4909581959F4F0895FB0138
:107F6000DC0104C08D910190801921F441505040F2
:107F7000C8F7881B990B08957AE0979F902D879FEB
:107F8000802D910D11240895DC01CB01FC01F9999C
:107F9000FECF06C0F2BDE1BDF89A319600B40D9255
:107FA00041505040B8F70895DC01A40FB51F41506F
:107FB000504040F0CB01840F951F2E9105D04150C9
:107FC0005040D8F70895262FF999FECF92BD81BD74
:107FD000F89A019700B4021639F01FBA20BD0FB607
:0A7FE000F894FA9AF99A0FBE08957A
:067FEA0000FCE1A8A80064
:040000030000780081
:00000001FF
